:100000000C9498000C94BE0F0C94970F0C94C000A5
:100010000C94C0000C94C0000C94C0000C94C00060
:100020000C94C0000C94C0000C94C0000C94C00050
:100030000C94C0000C94C0000C94C0000C94C00040
:100040000C944D0F0C94C0000C941B0F0C94F50EE7
:100050000C94C0000C94C0000C94C0000C94C00020
:100060000C94E50F0C94C00000000000250028004F
:100070002B0000000000240027002A004661696C64
:10008000656420746F2064657465637420616E64B8
:1000900020696E697469616C697A65204C6F526180
:1000A00021004661696C656420746F206465746525
:1000B000637420616E6420696E697469616C697A29
:1000C0006520546F462073656E736F722100576907
:1000D00072652072656164790053657269616C2094
:1000E0007265616479000000000023002600290089
:1000F00004040404040404040202020202020303CE
:1001000003030303010204081020408001020408D5
:100110001020010204081020000000080002010065
:10012000000304070000000000000000491101194D
:1001300011241FBECFEFD8E0DEBFCDBF24E0A4E086
:10014000B2E001C01D92A236B207E1F712E0A0E0D2
:10015000B1E0E0EAFBE302C005900D92A430B107E4
:10016000D9F710E0C7E9D0E004C02197FE010E9452
:10017000711BC639D107C9F70E9456120C94C31DD2
:100180000C94000090918302809182022FEF3FEF48
:10019000981748F4E92FF0E0EE59FD4F208130E048
:1001A0009F5F90938302C90108959091830280918B
:1001B00082022FEF3FEF981748F4E92FF0E0EE5955
:1001C000FD4F208130E09F5F90938302C901089525
:1001D00008950895AF92BF92CF92DF92EF92FF926F
:1001E0000F931F93CF93DF936C017B018B01040F5F
:1001F000151FEB015E01AE18BF08C017D10759F0FB
:100200006991D601ED91FC910190F081E02DC6013C
:100210000995892B79F7C501DF91CF911F910F9136
:10022000FF90EF90DF90CF90BF90AF900895FC01CA
:10023000538D448D252F30E0842F90E0821B930B4B
:10024000541710F0CF96089501970895FC01918DF1
:10025000828D981761F0A28DAE0FBF2FB11D5D96F4
:100260008C91928D9F5F9F73928F90E008958FEF96
:100270009FEF0895FC01918D828D981731F0828D4A
:10028000E80FF11D858D90E008958FEF9FEF0895A1
:10029000FC01918D228D892F90E0805C9F4F821B05
:1002A00091098F739927089584ED92E00E94480187
:1002B00021E0892B09F420E0822F089580E090E06E
:1002C000892B29F00E94540181110C94000008959B
:1002D000FC01A48DA80FB92FB11DA35ABF4F2C91BB
:1002E000848D90E001968F739927848FA689B789B2
:1002F0002C93A089B1898C91837080648C93938DA9
:10030000848D981306C00288F389E02D80818F7D4B
:1003100080830895EF92FF920F931F93CF93DF9303
:10032000EC0181E0888F9B8D8C8D98131AC0E88931
:10033000F989808185FF15C09FB7F894EE89FF8900
:100340006083E889F98980818370806480839FBF9E
:1003500081E090E0DF91CF911F910F91FF90EF909E
:100360000895F62E0B8D10E00F5F1F4F0F731127AE
:10037000E02E8C8D8E110CC00FB607FCFACFE889E9
:10038000F989808185FFF5CFCE010E946801F1CF08
:10039000EB8DEC0FFD2FF11DE35AFF4FF0829FB75D
:1003A000F8940B8FEA89FB8980818062CFCFCF934D
:1003B000DF93EC01888D8823B9F0AA89BB89E8898D
:1003C000F9898C9185FD03C0808186FD0DC00FB633
:1003D00007FCF7CF8C9185FFF2CF808185FFEDCFB1
:1003E000CE010E946801E9CFDF91CF91089583305B
:1003F00081F028F4813099F08230A9F00895873097
:10040000A9F08830C9F08430B1F4809180008F7DEC
:1004100003C0809180008F7780938000089584B519
:100420008F7784BD089584B58F7DFBCF8091B00018
:100430008F778093B00008958091B0008F7DF9CFC1
:100440001F93CF93DF93282F30E0F901E85EFE4F32
:100450008491F901EC5FFE4FD491F901E051FF4F17
:10046000C491CC23A9F0162F81110E94F701EC2F23
:10047000F0E0EE0FFF1FE859FF4FA591B4918FB741
:10048000F894EC91111108C0D095DE23DC938FBF56
:10049000DF91CF911F910895DE2BF8CFCF93DF939B
:1004A000C3E3D4E060E08C810E94200260E08D8193
:1004B0000E94200261E08C810E94200261E08D8117
:1004C000DF91CF910C942002CF93DF93C3E3D4E06C
:1004D00061E08C810E94200261E08D810E942002F7
:1004E00060E08D810E94200260E08C81DF91CF91DD
:1004F0000C942002CF93DF9390E0FC01EC5FFE4F61
:10050000249180519F4FFC0184918823D1F090E089
:10051000880F991FFC01EE58FF4FA591B491FC0183
:10052000E859FF4FC591D49161110EC09FB7F8945F
:100530008C91E22FE0958E238C932881E223E8832F
:100540009FBFDF91CF9108958FB7F894EC91E22B84
:10055000EC938FBFF6CF0F931F93CF93DF93D82FDA
:10056000C8E060E0809137040E9420020D2F0D2E1C
:10057000000C110B61E0D0FF60E0809138040E9414
:10058000200215950795D02F61E0809137040E94D5
:100590002002C15031F760E0809137040E942002B0
:1005A00061E0809138040E94200261E0809137046C
:1005B0000E94200260E0809138040E947A0283EC5D
:1005C00090E00197F1F72091380430E0F901E85EFE
:1005D000FE4F8491F901EC5FFE4FD491F901E05197
:1005E000FF4FC491CC2381F181110E94F701EC2FC0
:1005F000F0E0EE0FFF1FEA51FF4FA591B491EC918F
:10060000ED23C1E0D0E009F4C0E0C1110AC061E00F
:10061000809138040E947A0260E0809138040E9440
:10062000200203EC10E0C8010197F1F761E080912E
:1006300038040E947A02C8010197F1F7CE01DF91D8
:10064000CF911F910F910895C0E0D0E0E0CFCF93FC
:10065000DF93D82F80913604C0E08111C0E80E945A
:10066000640284E40E94AB020E944E020E94640273
:100670008D2F806C0E94AB028C2F0E94AB020E94D7
:100680004E020E946402809135040E94AB02DF9109
:10069000CF910C944E023FB7F8948091490290910B
:1006A0004A02A0914B02B0914C0226B5A89B05C00E
:1006B0002F3F19F00196A11DB11D3FBFBA2FA92FE1
:1006C000982F8827BC01CD01620F711D811D911DDE
:1006D00042E0660F771F881F991F4A95D1F708954A
:1006E0008F929F92AF92BF92CF92DF92EF92FF9242
:1006F0004B015C010E944B036B017C010E944B0388
:100700006C197D098E099F09683E7340810591052A
:10071000A8F321E0821A9108A108B10888EEC80E5A
:1007200083E0D81EE11CF11C81149104A104B104E2
:1007300029F7FF90EF90DF90CF90BF90AF909F9000
:100740008F9008950895CF92DF92EF92FF926115F6
:10075000710581059105F1F0DC01CB010197A1093B
:10076000B10930E020E06C017D01CC24CD28CE28F9
:10077000CF2839F0B695A795979587952F5F3F4F6E
:10078000F2CF322F2227822B932BFF90EF90DF9016
:10079000CF90089590E080E0F8CF0F931F93CF9310
:1007A000DF93EC01062F142F60E088890E9420025D
:1007B0009C858D859CBD8DBD0EBD00000DB407FED2
:1007C000FDCF8EB51EBD00000DB407FEFDCF1EB5DA
:1007D00061E088890E942002812FDF91CF911F91D3
:1007E0000F91089540E00C94CD0308950F931F934B
:1007F000CF93DF93EC01E881F9810084F185E02D4E
:100800000995892BB1F06DE0CE010E94F203082F0B
:1008100060E0CE010E94F203182F402F6DE8CE0158
:100820000E94CD03812F90E0DF91CF911F910F9116
:1008300008958FEF9FEFF8CFCF93DF93EC01E8811E
:10084000F9810084F185E02D0995892B69F08A8D65
:100850009B8D01969B8F8A8F60E0CE010E94F203F0
:1008600090E0DF91CF9108958FEF9FEFFACFCF9374
:10087000DF93EC0163E10E94F20390E02A8D3B8D4F
:10088000821B930BDF91CF910895AF92BF92CF92CD
:10089000DF92FF920F931F93CF93DF936C015B0165
:1008A000EA0162E20E94F203F82E90E09C012C0F14
:1008B0003D1F2F3F310529F020F0CFEFD0E0C81BBE
:1008C000D90B8501AC0EBD1E0A151B0541F0F801C0
:1008D00041918F0160E8C6010E94CD03F5CF4C2FF6
:1008E0004F0D62EAC6010E94CD03CE01DF91CF9188
:1008F0001F910F91FF90DF90CF90BF90AF90089520
:10090000CF93DF931F92CDB7DEB76983DC01ED9102
:10091000FC910280F381E02D41E050E0BE016F5F69
:100920007F4F09950F90DF91CF9108952091250277
:10093000260F3327331F21323105ECF42091AA0210
:10094000FC0190E080E0243069F082E00895A091FD
:1009500025022191AC014B5F5D4FA40FB52FB11D56
:100960002C930196861798F380912502680F609367
:10097000250280E0089581E008951092AA0281E0A6
:100980008093A9021092840261E082E10E94200219
:1009900061E083E10E942002E9EBF0E080818E7F3C
:1009A000808380818D7F808388E48093B80085E494
:1009B0008093BC000895CF93DF9391E0909304025D
:1009C0008823B9F0C091B800D091BA008091BC00E2
:1009D0008A7B8093BC0060E082E10E94200260E09C
:1009E00083E10E9420020E94BD04D093BA00C0930C
:1009F000B800DF91CF9108958F929F92AF92BF92EE
:100A0000CF92DF92EF92FF920F931F93CF93DF93DA
:100A1000D091D302D13208F0D7C0182FC091D202A2
:100A20000E944B036B017C018091AA0281116BC073
:100A300082E08093AA021093A9028FEF8093A8020C
:100A40001092A702D093A602A2EBB2E0E6E8F2E091
:100A500080E0D81391C01092850280918502CC0F5E
:100A6000C82BC093850280918402813009F088C030
:100A7000109284020E944B036B017C0180918502DD
:100A80008093BB008091AC029091AD02A091AE0228
:100A9000B091AF02892B8A2B8B2BA1F00E944B03C4
:100AA0000091AC021091AD022091AE023091AF02E4
:100AB0006C197D098E099F09061717072807390742
:100AC00008F442C08091BC0083FDD8CF85EC8093B0
:100AD000BC000E944B036B017C018091AA02823012
:100AE00009F450C08091A8028F3F09F46FC0809133
:100AF000A802803209F46CC08091A802803309F406
:100B000069C084E026C08091AC029091AD02A091B2
:100B1000AE02B091AF02892B8A2B8B2B09F484CFC4
:100B20000E944B038090AC029090AD02A090AE0268
:100B3000B090AF026C197D098E099F098616970641
:100B4000A806B90608F070CF8091AB020E94DB04C2
:100B500085E01092B1021092D3021092B002DF91A0
:100B6000CF911F910F91FF90EF90DF90CF90BF90AA
:100B7000AF909F908F9008959D9191938F5F69CFD3
:100B800085EEA5CF8091AC029091AD02A091AE020E
:100B9000B091AF02892B8A2B8B2B09F49ECF0E9438
:100BA0004B030091AC021091AD022091AE02309146
:100BB000AF026C197D098E099F09061717072807D0
:100BC000390708F08ACFC0CF81E0C3CF80E0C1CF22
:100BD00082E0BFCF83E0BDCFCF92DF92EF92FF9252
:100BE0000F931F93CF93DF93D82FC62F613208F056
:100BF00098C00E944B036B017C018091AA02811175
:100C00006BC081E08093AA028093A9029FEF90932A
:100C1000A8021092A7029C0F9093A60280938502CF
:100C200080918502DD0FD82BD093850280918402BC
:100C3000813009F078C0109284020E944B036B014E
:100C40007C01809185028093BB008091AC029091E1
:100C5000AD02A091AE02B091AF02892B8A2B8B2BF3
:100C6000A1F00E944B030091AC021091AD022091C3
:100C7000AE023091AF026C197D098E099F090617EB
:100C800017072807390708F448C08091BC0083FD86
:100C9000D8CF85EC8093BC000E944B036B017C0194
:100CA0008091AA02813009F440C08091A7028C177C
:100CB00010F4C091A702E6E8F2E0A2E6B2E080E01C
:100CC0008C1355C08C2FDF91CF911F910F91FF9006
:100CD000EF90DF90CF9008958091AC029091AD029B
:100CE000A091AE02B091AF02892B8A2B8B2B09F415
:100CF00084CF0E944B030091AC021091AD02209171
:100D0000AE023091AF026C197D098E099F0906175A
:100D100017072807390708F070CF8091AB020E94AF
:100D2000DB04C0E0CFCF85EEB5CF8091AC029091CF
:100D3000AD02A091AE02B091AF02892B8A2B8B2B12
:100D400009F4AECF0E944B030091AC021091AD02AA
:100D50002091AE023091AF026C197D098E099F0976
:100D6000061717072807390708F09ACFD6CF9191B1
:100D70009D938F5FA5CFE091830280918202E81757
:100D800030F4F0E0EE59FD4F808190E008958FEF50
:100D90009FEF08958091820290918302891B990BA5
:100DA0000895CF92DF92EF92FF920F931F93CF930C
:100DB000DF937C01CB018A012091B002222389F0CC
:100DC000EB016B01C40ED51ECC15DD0569F06991F0
:100DD000D701ED91FC910190F081E02DC7010995BB
:100DE000F3CF642F0E949604C801DF91CF911F9129
:100DF0000F91FF90EF90DF90CF900895CF93DF9306
:100E00001F92CDB7DEB769832091B0022223F9F09B
:100E10002091D302203258F021E030E0FC013383EE
:100E2000228390E080E00F90DF91CF910895809130
:100E3000B102E82FF0E0EE54FD4F998190838F5F6F
:100E40008093B1028093D30281E090E0ECCF61E027
:100E5000CE0101960E949604F7CF682F84E993E0B3
:100E60000C94FE06EF92FF920F931F93CF93DF93A4
:100E70007C018B01C9E3D4E08E8991E09093B002AC
:100E80008093D2021092B1021092D30290E080E0DF
:100E90000E942D07C7010E942D07812F90E00E941C
:100EA0002D07C80199270E942D0781E00E94FC04AC
:100EB0008B87DF91CF911F910F91FF90EF90089555
:100EC000EF92FF921F93CF93DF937C01162FC9E31C
:100ED000D4E08E8991E09093B0028093D202109278
:100EE000B1021092D30290E080E00E942D07C7016A
:100EF0000E942D07612F84E993E00E94FE0681E0A5
:100F00000E94FC048B87DF91CF911F91FF90EF909F
:100F1000089590E080E00895FC019B01892BD1F0B9
:100F2000AB01770F660B770B9481907837FD08C083
:100F300098609483408351836283738381E0089532
:100F40009A60948370956095509541955F4F6F4F6F
:100F50007F4FF0CF80E00895FC012581222339F0F6
:100F6000F8E02F0290011124820F931F089590E062
:100F700080E008950F931F93CF93DF938C01C9E313
:100F8000D4E08E8991E09093B0028093D2021092C7
:100F9000B1021092D30290E080E00E942D07C801B8
:100FA0000E942D0781E00E94FC048B8761E08E89FE
:100FB0000E94EC0510928302809382020E94D50069
:100FC000DF91CF911F910F9108954F925F926F9291
:100FD0007F928F929F92AF92BF92CF92DF92EF92C9
:100FE000FF926B017C0120EBC21A21E1D20AE108D9
:100FF000F10881EEC81688ECD80680E1E806F10415
:1010000008F0E7C080E690E00E94BA07B82E209171
:1010100055043091560450E040E060E070E080E01C
:1010200090E40E944F1BA0E0B9E00E942E1A9B01A1
:10103000AC01A6E05695479537952795AA95D1F727
:10104000B394BB0CAB2DB0E00E942E1A2B013C01D7
:10105000B6E07694679457944794BA95D1F74B01CC
:101060005C0187E0B694A794979487948A95D1F70A
:10107000C501B4017058814C9F4FA30192010E9499
:101080004F1B2F3F31054105510529F020F02FEF6F
:1010900030E040E050E0622F8BE490E00E94600777
:1010A000C501B401705F8F4F9F4FA30192010E9451
:1010B0004F1BCA01B9010E94A303BC018AE590E05D
:1010C0000E943207F694E794D794C7949CE0CC0C26
:1010D000DD1CEE1CFF1C9A95D1F7C501B4016C0D07
:1010E0007D1D8E1D9F1DA30192010E944F1BCA01F1
:1010F000B9010E94A303BC018EE590E00E94320773
:1011000083E690E00E94BA07B82E209155043091F2
:10111000560450E040E060E070E080E090E40E941F
:101120004F1BA0E0B9E00E942E1A9B01AC0166E0C3
:1011300056954795379527956A95D1F7A1E0AB0D60
:10114000AA0FB0E00E942E1A2B013C01E6E0769433
:10115000679457944794EA95D1F74B015C01F7E007
:10116000B694A79497948794FA95D1F7C501B401E2
:10117000705F8F4F9F4FA30192010E944F1BCA01C6
:10118000B9010E94A303BC018CE590E00E943207E4
:10119000C701B601680D791D8A1D9B1DA30192012F
:1011A0000E944F1BCA01B9010E94A303BC0181E642
:1011B00090E00E94320781E0FF90EF90DF90CF90A7
:1011C000BF90AF909F908F907F906F905F904F9067
:1011D000089580E0F1CF0F931F93CF93DF938C019D
:1011E000C9E3D4E08E8991E09093B0028093D2025B
:1011F0001092B1021092D302812F90E00E942D072D
:10120000C80199270E942D0781E00E94FC048B876A
:1012100062E08E890E94EC05109283028093820224
:101220000E94D500D82F80E0C82F0E94D5008C2BBB
:101230009D2BDF91CF911F910F9108958F929F92D7
:10124000AF92BF92CF92DF92EF92FF920F9380E620
:1012500090E00E94BA07F82E209155043091560470
:1012600050E040E060E070E080E090E40E944F1BBE
:10127000A0E0B9E00E942E1A9B01AC0186E05695D1
:101280004795379527958A95D1F7F394FF0CAF2DA5
:10129000B0E00E942E1A6B017C018EE590E00E9466
:1012A000EB089C01BC01772790E080E004C0660F4A
:1012B000771F881F991F3A95D2F76F5F7F4F8F4F27
:1012C0009F4FA7019601E6E05695479537952795DC
:1012D000EA95D1F70E94771B385F4F4F5F4F6F4FF2
:1012E0007F4F8F4F9F4F0CE00E94A41B49015A0172
:1012F00088ED880E88E0981EA11CB11C880C991CF2
:10130000AA1CBB1C6FE080E690E00E9460076DE0C5
:1013100083E690E00E94600768EB89E690E00E9417
:1013200060076FE088E790E00E9460076DE089E762
:1013300090E00E9460076EE08AE790E00E946007FC
:101340006EE08BE790E00E94600781EB881681E1F8
:101350009806A104B10420F0C501B4010E94E5077C
:1013600082E090E090935D0480935C0481E00F91B3
:10137000FF90EF90DF90CF90BF90AF909F908F90B5
:10138000089542E050E06DEA71E084ED92E00C9443
:10139000EA000F931F93CF93DF938C01D0E0C0E05E
:1013A000F801EC0FFD1F6491662341F084ED92E09B
:1013B0000E948A01892B11F02196F2CF0E94C10967
:1013C0008C0F9D1FDF91CF911F910F9108950F9367
:1013D0001F93CF93DF938C019091B203892F8F7766
:1013E00061F4907890629093B2031092AF031092E0
:1013F000AE031092B1031092B0038091B20385FD49
:1014000008C0F0E0E0E0CF01DF91CF911F910F9194
:10141000089501151105A9F3C091AE03D091AF0352
:101420002097C9F06E817F816017710791F0611577
:10143000710529F0C8010E94B31D892B51F0CE011E
:101440000E94AC07EC01ECCFF093AF03E093AE0346
:1014500025C0FE01D8CFE091AA03F091AB038091A3
:10146000A8039091A9030896E817F90750F2389756
:10147000F093AB03E093AA03309719F2A091B00365
:10148000B091B103109701F3CF018A1B9B0B23E0AE
:10149000959587952A95E1F715968C93F093B1036E
:1014A000E093B0031582148217830683ACCF0F93A9
:1014B0001F93CF93DF93EC0188819981009759F0B6
:1014C0002A813B812617370730F081E0DF91CF91E9
:1014D0001F910F9108958B016F5F7F4F0E94ED1C4C
:1014E000009759F0998388831B830A832C813D815F
:1014F000232B59F7FC011082E8CF80E0E7CFCF9291
:10150000DF92EF92FF920F931F93CF93DF938C01A3
:10151000DC019296ED91FC91E80FF91F12826C01AB
:10152000B2E0CB0ED11CC114D10431F1F60101900F
:101530000020E9F73197EC19FD09F1F0DC01ED909D
:10154000FC90D7011496CD91DC91CE0FDF1FBE0128
:10155000C7010E94570A882379F0F7012081318161
:1015600084819581B601820F931F0E94BC1DD70113
:101570001596DC93CE931497F80113A212A2DF9173
:10158000CF911F910F91FF90EF90DF90CF90089532
:10159000CF93DF93EC018AA19BA19C012F5F3F4F6A
:1015A0003BA32AA3FE01E80FF91F628302968097EE
:1015B00018F0CE010E947F0A8CA19DA101969DA3E7
:1015C0008CA3DF91CF910895EF92FF920F931F9319
:1015D000CF93DF93EC017B0162E20E94C80A87018E
:1015E000F80161918F01662391F0E8E9F1E0F28062
:1015F000FF2049F0329681816813F9CF6CE5CE0166
:101600000E94C80A6F2DCE010E94C80AE9CF62E28B
:10161000CE01DF91CF911F910F91FF90EF900C942D
:10162000C80ACF92DF92EF92FF920F931F93CF934E
:10163000DF938C016A01EB017B01E40EF51ECE15F0
:10164000DF0599F02991F80182A193A1AC014F5FC8
:101650005F4F53A342A3E80FF91F2283029680979E
:1016600070F3C8010E947F0AEACFC601DF91CF91D3
:101670001F910F91FF90EF90DF90CF900895EF9220
:10168000FF920F931F93CF93DF93CDB7DEB766978B
:101690000FB6F894DEBF0FBECDBF8C01CB01FE01AB
:1016A00077969F014AE0E42EF12CB7010E943B1B84
:1016B000805D8293CB010097C1F7A9014E1B5F0BA0
:1016C000BF01C8010E94110BF80124A135A1820FAE
:1016D000931F95A384A366960FB6F894DEBF0FBE42
:1016E000CDBFDF91CF911F910F91FF90EF900895A3
:1016F0008F929F92AF92BF92CF92DF92EF92FF9222
:101700000F931F93CF93DF93CDB7DEB766970FB6D6
:10171000F894DEBF0FBECDBF7C018E01095E1F4F66
:1017200068018AE0882E912CA12CB12CCB01BA0142
:10173000A50194010E944F1B942F852F605DF80135
:1017400062938F01A901692F782F41155105610519
:10175000710561F7A6014E1B5F0BBF01C7010E9417
:10176000110BF70124A135A1820F931F95A384A328
:1017700066960FB6F894DEBF0FBECDBFDF91CF9156
:101780001F910F91FF90EF90DF90CF90BF90AF909F
:101790009F908F900895CF93DF93EC01FB01019010
:1017A0000020E9F73197AF01461B570B0E94110B40
:1017B0002CA13DA1820F931F9DA38CA3DF91CF91FC
:1017C00008950F931F93CF938C01C0E0F80186A179
:1017D000C81738F469EA71E0C8010E94CB0BCF5FEB
:1017E000F5CFCF911F910F9108952F923F924F9275
:1017F0005F926F927F928F929F92AF92BF92CF92A1
:10180000DF92EF92FF920F931F93CF93DF93CDB7A9
:10181000DEB76A970FB6F894DEBF0FBECDBFFC01EE
:101820004B0194819F77963009F499C2C0F49230AD
:1018300000F1943008F07AC2428153816081718155
:10184000C4010E94110BD40194962D913C9195975F
:10185000820F931F95969C938E93949707C29C300A
:1018600009F446C048F4983009F474C29A3009F477
:1018700063C260EB71E038C0903209F419C2903451
:10188000C1F70081118168EB71E00115110561F16B
:101890006BEB71E0C4010E94CB0BF40186A18F5F5A
:1018A00086A3C4010E94E10BB401C8010E94F50B9C
:1018B000C8010E94AC078C016CEA71E0892B11F41D
:1018C0006DEA71E0C4010E94CB0B0115110549F7C7
:1018D000D40196968C919697815096968C93C401DC
:1018E0000E94E10B69EB71E0C4010E94CB0BBEC109
:1018F0004080518062807380A3019201C301B201D4
:101900000E940A198111B5CF20E030E0A901C3017E
:10191000B2010E940A19882379F0A3019201C30140
:10192000B2010E94801A9B01AC01C301B2010E9466
:101930000A19882309F49DCF20E030E0A901C301F2
:10194000B2010E940A1987FF08C06DE2C4010E941B
:10195000C80A77FA709477F8709420E836E948E17D
:101960005BE4C301B2010E94221B87FD79C042E5FE
:10197000E42E41E0F42E52E2C52E51E0D52E6AE36A
:10198000A62E61E0B62E00E210E0312C212CA3013E
:101990009201D7019E918E917E916E917D010E9460
:1019A0000A1918166CF0F601248935894689578979
:1019B000C301B2010E9470192B013C01200E311E9F
:1019C00015950795F4E0CF1AD108AE14BF04F9F6C7
:1019D0008FEF8B8B20E030E0A901C301B2010E94A0
:1019E000221B18160CF043C02CEA35EC47E257E3F3
:1019F000C301B2010E940A191816CCF1AB89B4E0F8
:101A0000AB0250011124D12CC12CEB89EF3F79F1AD
:101A10007501EC0CFD1CF701E65FFE4FA30192017E
:101A200060817181828193810E94221B18167CF44F
:101A3000F701E65CFE4F2081318142815381C30171
:101A4000B2010E9470192B013C01201A310A159530
:101A50000795FB89F150FB8B84E0C81AD108D5CFDC
:101A600000E210E095E09B8B312C212CB3CFC30119
:101A7000B2010E94F31A6B8B7C8B8D8B9E8B6B015A
:101A80007C0116E080E492E4AFE0B0E08F8B988FA9
:101A9000A98FBA8F012F11509AE0C916D104E10421
:101AA000F104C8F06F89788D898D9A8D2AE030E035
:101AB00040E050E00E944F1B2F8B388F498F5A8F88
:101AC000C701B6012AE030E040E050E00E944F1B21
:101AD00069017A01DFCF6B897C898D899E890E949B
:101AE0000F199B01AC01C301B2010E947F1A6B0167
:101AF0007C016F89788D898D9A8D0E940F199B01C9
:101B0000AC01C701B6010E9470192B013C010E9473
:101B1000F31A6B017C010E940F199B01AC01C301F8
:101B2000B2010E947F1A9B01AC010E94801A0E94A0
:101B3000F31AC60ED71EE81EF91E8F89988DA98D3F
:101B4000BA8DC816D906EA06FB0600F18B899C8976
:101B5000AD89BE890196A11DB11D8B8B9C8BAD8B70
:101B6000BE8B2114310439F10A97A105B10518F192
:101B70009FEF291A390AC12CD12C760181E090E01F
:101B8000A0E0B0E08B8B9C8BAD8BBE8B9AE0492E96
:101B9000512C612C712CC701B601A30192010E9446
:101BA0004F1B672B682B692B51F4101644F4690105
:101BB0007A010150F0CFC12CD12C7601E7CF4B89AF
:101BC0005C896D897E89C4010E94780B002309F429
:101BD0003FC05E0191E1A90EB11C102FBA8AA98AFB
:101BE0008AE0482E512C612C712C115068F0C701ED
:101BF000B601A30192010E944F1B605DD5016E9357
:101C00005D0169017A01F1CF802F90E0BC01609500
:101C10007095E989FA89E81BF90B31978EE2808388
:101C200044275527461B570BE1E1F0E0EC0FFD1F61
:101C30006E0F7F1FC4010E94110BD40194962D9149
:101C40003C919597820F931F95969C938E939497B2
:101C500037FE25C065EB71E0C4010E94CB0B6627FF
:101C6000772762197309C4010E943F0B6A960FB669
:101C7000F894DEBF0FBECDBFDF91CF911F910F91C2
:101C8000FF90EF90DF90CF90BF90AF909F908F909C
:101C90007F906F905F904F903F902F900895211408
:101CA000310421F365E6C4010E94C80AB101DBCF0B
:101CB000008111816FEB71E00115110509F414CE5B
:101CC00062EC71E0C4010E94CB0BF40186A18F5F2E
:101CD00086A3C4010E94E10BD80116966D917C91F8
:101CE000C4010E94E40A66EC71E0C4010E94CB0BBF
:101CF000B401C8010E94F50BC8010E94AC078C0119
:101D00006CEA71E0892B11F46DEA71E0C4010E9464
:101D1000CB0B01151105E9F6F40186A1815086A3CC
:101D2000C4010E94E10B60EC71E0DECD6081718145
:101D3000C4010E94E40A9ACFC080D180E280F3807F
:101D40006DE2C4010E94C80AB701A601C4010E9445
:101D5000780B8CCF4081518162817381F7CF808174
:101D60009181A281B38169EC71E0892B8A2B8B2B45
:101D700009F0BACD6EEC71E0B7CD85ED8093BC0073
:101D80008091AC029091AD02A091AE02B091AF02F1
:101D90000796A11DB11D23E0B695A7959795879548
:101DA0002A95D1F72091BC0024FD03C01092AA020D
:101DB00008954091AC025091AD026091AE027091D5
:101DC000AF02452B462B472B69F30097A105B105C0
:101DD00041F025E32A95F1F700000197A109B10927
:101DE000E1CF8091AB020C94DB041F920F920FB6EF
:101DF0000F9211242F933F934F935F936F937F9391
:101E00008F939F93AF93BF93EF93FF9384ED92E0F3
:101E10000E946801FF91EF91BF91AF919F918F91C7
:101E20007F916F915F914F913F912F910F900FBED6
:101E30000F901F9018951F920F920FB60F921124BA
:101E40002F938F939F93EF93FF93E091E402F09190
:101E5000E5028081E091EA02F091EB0282FD1BC075
:101E600090818091ED028F5F8F732091EE02821737
:101E700041F0E091ED02F0E0EC52FD4F958F809340
:101E8000ED02FF91EF919F918F912F910F900FBED7
:101E90000F901F9018958081F4CF1F920F920FB66C
:101EA0000F9211242F933F938F939F93AF93BF93E0
:101EB0008091520290915302A0915402B091550228
:101EC0003091480223E0230F2D3758F50196A11DCC
:101ED000B11D209348028093520290935302A09325
:101EE0005402B09355028091490290914A02A09108
:101EF0004B02B0914C020196A11DB11D8093490285
:101F000090934A02A0934B02B0934C02BF91AF91C1
:101F10009F918F913F912F910F900FBE0F901F9027
:101F2000189526E8230F0296A11DB11DD2CF1F924E
:101F30000F920FB60F9211242F933F934F935F93FD
:101F40006F937F938F939F93AF93BF93EF93FF9381
:101F5000E0910201F09103010995FF91EF91BF918A
:101F6000AF919F918F917F916F915F914F913F9131
:101F70002F910F900FBE0F901F9018951F920F92E8
:101F80000FB60F9211242F933F934F935F936F934C
:101F90007F938F939F93AF93BF93EF93FF93E091C2
:101FA0000001F09101010995FF91EF91BF91AF916F
:101FB0009F918F917F916F915F914F913F912F9161
:101FC0000F900FBE0F901F9018951F920F920FB693
:101FD0000F9211242F933F934F935F936F937F93AF
:101FE0008F939F93AF93BF93EF93FF938091B9002B
:101FF000887F803609F44AC0F0F5883209F4A7C01A
:1020000018F5803109F49BC0B8F4882309F4F9C0AD
:10201000883009F494C0FF91EF91BF91AF919F91E7
:102020008F917F916F915F914F913F912F910F9081
:102030000FBE0F901F901895883109F488C0803228
:1020400051F78093A80214C0803409F49DC040F475
:102050008033B9F38833F9F68093A80285ECB0C0D9
:10206000803509F485C0883509F496C0883499F61E
:102070000E94BD0ED0CF883909F48CC038F588375E
:1020800029F050F4883611F0803729F683E08093E8
:10209000AA021092470257C0883809F47BC08039E1
:1020A00019F0803809F0B7CF80914702803208F0EC
:1020B00071C0E091470281E08E0F809347028091CA
:1020C000BB00F0E0E95DFD4F80833DC0803B39F00F
:1020D000E0F4803A09F479C0883A09F09CCF84E0B2
:1020E0008093AA021092260210922502E0914F02DC
:1020F000F091500209958091250281110FC081E075
:10210000809325021092050209C0803C09F4A6CFF5
:10211000883C09F4A3CF883B09F07DCFE0912602EB
:1021200081E08E0F80932602F0E0EB5FFD4F80810F
:102130008093BB00909126028091250229C0809156
:1021400085028093BB0085EC8093BC0064CF9091A6
:10215000A7028091A602981758F5E091A70281E0A6
:102160008E0F8093A702F0E0EA57FD4F8081E9CF00
:10217000E091A70281E08E0F8093A7028091BB00BF
:10218000F0E0EA57FD4F80839091A7028091A6026C
:102190009817C8F285E8D8CFE091A70281E08E0FAA
:1021A0008093A7028091BB00F0E0EA57FD4F808347
:1021B0008091A90281115CCF81E08093840284EA3E
:1021C0008093BC001092AA0226CF85EC8093BC00BD
:1021D0001092AA0280914702803230F4E0914702C7
:1021E000F0E0E95DFD4F10826091470270E0E09100
:1021F0004D02F0914E0287E292E00995109247025B
:102200000ACF1092A80234CFCF92DF92EF92FF92C2
:102210000F931F93E82FF92F05C0015011092109D1
:10222000310961F1908196239417B9F305C00150EB
:1022300011092109310911F1908196239413F7CFE7
:10224000C12CD12CE12CF12C0AC08FEFC81AD80A6E
:10225000E80AF80A0C151D052E053F0579F0808166
:102260008623841791F36C2D7D2D8E2D9F2D1F912C
:102270000F91FF90EF90DF90CF90089560E070E0B5
:1022800080E090E01F910F91FF90EF90DF90CF9052
:1022900008951092D7021092D60288EE93E0A0E043
:1022A000B0E08093D8029093D902A093DA02B09361
:1022B000DB0226E631E03093D5022093D40225ECF0
:1022C00030E03093E1022093E00224EC30E03093E0
:1022D000E3022093E20220EC30E03093E502209309
:1022E000E40221EC30E03093E7022093E60222EC96
:1022F00030E03093E9022093E80226EC30E030939E
:10230000EB022093EA021092ED021092EE0210927C
:10231000EF021092F002109275031092740328E7F6
:1023200031E0309373032093720320E520937E0302
:1023300021E020937F0321E733E030938103209352
:1023400080032AE030E0309383032093820329E066
:1023500030E0309385032093840322E030E0309313
:1023600087032093860310928803109289031092AA
:102370008A0310928B0310928D0310928C0310929B
:102380008F0310928E03109291031092900310927B
:102390009303109292031092760310927703109297
:1023A000780310927903109297031092960380930A
:1023B000980390939903A0939A03B0939B038AE8A0
:1023C00091E0909395038093940389E280934F0466
:1023D0001092510410925004109252041092590419
:1023E00010925A0410925B0483E090E090935D0495
:1023F00080935C0487E08093370485E08093380401
:1024000061E087E00E947A0261E0809138040E94D6
:102410007A0283EB93E09093A7038093A6039093B3
:10242000A9038093A80383E394E09093AB03809384
:10243000AA039093AD038093AC038091B20380789C
:102440008093B2031092A1031092A0031092A303F1
:102450001092A2031092A5031092A40370E060E012
:1024600080EA93E00E94570A2091A0033091A103D3
:10247000811113C02115310519F0C9010E94641C96
:102480001092A1031092A0031092A5031092A4032E
:102490001092A3031092A20308951092A503109224
:1024A000A40368EA71E0C9010C94BC1DCF93DF93CB
:1024B000CDB7DEB7CB5BD1090FB6F894DEBF0FBE48
:1024C000CDBF789484B5826084BD84B5816084BDBD
:1024D00085B5826085BD85B5816085BD80916E00C2
:1024E000816080936E0010928100809181008260F3
:1024F0008093810080918100816080938100809130
:1025000080008160809380008091B100846080931E
:10251000B1008091B00081608093B00080917A001A
:10252000846080937A0080917A00826080937A0040
:1025300080917A00816080937A0080917A0080682F
:1025400080937A001092C10061E083E00E947A02D9
:1025500060E084E00E947A02E091E402F091E502FA
:1025600082E08083E091E002F091E1021082E0914C
:10257000E202F091E30280E180831092EC02E091AC
:10258000E802F091E90286E08083E091E602F091B2
:10259000E702808180618083E091E602F091E702AA
:1025A000808188608083E091E602F091E70280817B
:1025B00080688083E091E602F091E70280818F7D60
:1025C000808389ED90E00E94C909109283021092E5
:1025D00082021092B1021092D3020E94BD0488EED2
:1025E00090E09093500280934F0289EE90E0909398
:1025F0004E0280934D028CE08093B8008EEC90E008
:102600000E94C90984EF91E0909351048093500493
:102610000BE811E08FE091E00E94EB088C3C9A4EB1
:1026200009F04DC060E090E080E00E946007C801C2
:102630000197F1F761E090E080E00E94600761E0BF
:1026400070E080E090E00E9470032FB7F8948091D2
:10265000520290915302A0915402B09155022FBFA3
:10266000909354048093530485EE90E00E94BA073F
:1026700080FF04C080914404882331F1809150048C
:1026800090915104892B81F32FB7F89480915202D5
:1026900090915302A0915402B09155022FBF209106
:1026A000530430915404821B930B209150043091B9
:1026B000510428173907C0F681E08093520482EA5A
:1026C00090E00E94C909A6CF8EE290E00E94BA076E
:1026D000682F61608EE290E00E94600786E090E0E3
:1026E0000E94EB0890935604809355048EED90E081
:1026F0000E94EB08909358048093570460E07AE0BE
:1027000084E290E00E94320762E081E390E00E9460
:10271000600768E086E390E00E94600760E187E37D
:1027200090E00E94600761E089E390E00E9460070A
:102730006FEF8EE390E00E94600760E08FE390E02F
:102740000E94600762E080E490E00E94600770E011
:1027500060E080E590E00E94320770E060E082E592
:1027600090E00E94320768E387E590E00E946007EE
:1027700068E671E084E690E00E94320760EC70E069
:1027800086E690E00E94320761E081E790E00E94D7
:10279000600761E08CE790E00E94600762E08EE7EE
:1027A00090E00E94600760E082E890E00E9460078D
:1027B00061E087E790E00E9460076BE881E890E0C5
:1027C0000E94600760E078EC84E590E00E943207A8
:1027D00062E08FE490E00E9460070E941E0960E5BD
:1027E00073EC80E090E00E94E50782E290E00E94B6
:1027F000EB08BC01660F771F660F771F8EE190E034
:102800000E9432070AEF10E08EE0E82E81E0F82EF9
:1028100061E0809182030E947A0261E080918203EC
:102820000E94200280918403909185038F3F980736
:10283000C9F061E00E947A0260E0809184030E9406
:1028400020026AE070E080E090E00E94700361E0A6
:10285000809184030E9420026AE070E080E090E0B2
:102860000E947003DFB6F89480915102811125C057
:10287000F8018491F7019491E82FF0E0EE0FFF1F2B
:10288000EE58FF4FA591B4918C91982321F461E00B
:102890008AE00E94200261E08AE00E947A028CB500
:1028A00080618CBD8CB580648CBD61E08DE00E9440
:1028B0007A0261E08BE00E947A02809151028F5F80
:1028C00080935102DFBE62E482E793E00E94F2034C
:1028D000823109F002C340E861E882E793E00E9498
:1028E000CD0380E49EE0AFECB9E180938803909340
:1028F0008903A0938A03B0938B034CE666E882E7D2
:1029000093E00E94CD0340E467E882E793E00E94F1
:10291000CD0340E068E882E793E00E94CD0340E009
:102920006EE882E793E00E94CD0340E06FE882E723
:1029300093E00E94CD036CE082E793E00E94F203F3
:10294000482F43606CE882E793E00E94CD0344E0A7
:1029500066EA82E793E00E94CD0344E86DEC82E7EB
:1029600093E00E94CD034BE26BE882E793E00E9484
:10297000CD034FE869E882E793E00E94CD0341E888
:1029800061E882E793E00E94CD0364EF71E080E0AC
:1029900090E00E9470030E941E0960E573EC80E0E5
:1029A00090E00E94E5072091570430915804A2E37B
:1029B000B0E00E94701A6B017C0180914F0491E09D
:1029C0009093B0028093D2021092B1021092D3027F
:1029D00090E080E00E942D078CE690E00E942D0799
:1029E00060E084E993E00E94FE06B70188279927FA
:1029F00084E993E00E94FE0699278F2D7E2D6D2D90
:102A000084E993E00E94FE066C2D84E993E00E9425
:102A1000FE0681E00E94FC048093440461E086E8A5
:102A200090E00E94600760E487E890E00E94600701
:102A300080E00E94270381E00E94270382E00E9439
:102A4000270383E00E94270380E48093330480EC13
:102A5000809334048AE880933504212C312C412C56
:102A6000EAE05E2EFAE0CF2ED12C9E012B5F3F4F85
:102A7000C854DF4F39832883C85BD04060E083E0CF
:102A80000E9420028FE090E00197F1F761E083E07F
:102A90000E94200283E290E00197F1F760E083E07A
:102AA0000E942002E8E0F1E06491E4EFF0E084911C
:102AB000E82FF0E0EE0FFF1FEA51FF4F8591949150
:102AC00000E412E42FE030E0462F0E94041161156B
:102AD00071058105910529F06F5F7F4F8F4F9F4FE3
:102AE0009F700E94111926E933E44BE05DE30E94D8
:102AF000701920E030E040E05FE30E9470190E940E
:102B0000EC1A70936102609360022FB7F894809181
:102B1000520290915302A0915402B09155022FBFDE
:102B2000909354048093530481E390E00E94BA0789
:102B300080FFD8C18091500490915104892BA1F35A
:102B40002FB7F8948091520290915302A0915402B1
:102B5000B09155022FBF2091530430915404821B31
:102B6000930B209150043091510428173907E0F657
:102B700081E0809352048FEF80933B0410923A04DB
:102B80001092390410923C0410923D0410923E04BD
:102B900010923F041092400410924104109242049B
:102BA0001092430490E080E0B6010E94271B7093CE
:102BB0005F0260935E028091520410925204882357
:102BC00041F048E050E064ED71E084ED92E00E9455
:102BD000EA00A0915C02B0915D02C654DF4FB98358
:102BE000A883CA5BD0408090600290906102A09060
:102BF0005E02B0905F02A0FFEBC290925B028092F7
:102C00005A0220915A0230915B02C901B6010E941A
:102C10003B1B482F80935902CB01B6010E943B1BFE
:102C2000E82F80935802C90164E670E00E943B1BC4
:102C3000CB01B6010E943B1BF82F80935702C901BC
:102C400068EE73E00E943B1BCB01B6010E943B1B68
:102C5000809356028983FA83EB834C8380913604F8
:102C600090E8811101C090E0FE0131967F018F0153
:102C70003F01D801EC91EF3709F0AFC21C920F5F12
:102C80001F4FC854DF4F28813981C85BD0402017BF
:102C9000310779F70E94640280E40E94AB020E942F
:102CA0004E020E946402809134040E94AB02D7015C
:102CB0008D917D010E94AB020E151F05C1F70E9488
:102CC0004E020E946402809135040E94AB020E9471
:102CD0004E02C654DF4F08811981CA5BD0400F5F96
:102CE0001F4F10935D0200935C028DED91E00E94F6
:102CF000E709B8010E948C0786EE91E00E94E7097F
:102D0000B4010E948C0785EF91E00E94E709B501AC
:102D10000E948C0770E060E080EA93E00E94570A0E
:102D20002091A0033091A103811161C221153105C9
:102D300019F0C9010E94641C1092A1031092A00313
:102D40001092A5031092A4031092A3031092A20361
:102D500080EA93E0CC56DF4F99838883C459D040F2
:102D6000CA54DF4F19821882C65BD04084E2FE014C
:102D7000EC56FF4FDE01A059BF4F01900D928A958E
:102D8000E1F784E2FE01E059FF4FDE01A45BBF4F93
:102D900001900D928A95E1F784E2FE01E45BFF4F1A
:102DA000DE01989601900D928A95E1F784E2FE018A
:102DB000B896D30101900D928A95E1F71EA21DA24B
:102DC000CE0188960E947F0ACE01845B9F4F0E94AD
:102DD0007F0A1FA2B3018EEA93E00E94F50BC301A4
:102DE0000E947F0ACE0180599F4F0E947F0ACE0128
:102DF0008C569F4F0E947F0A4091A4035091A503D7
:102E00006091A0037091A10384ED92E00E94EA001A
:102E10000E94C10961E082E793E00E94F20383709F
:102E2000833079F162E182E793E00E94F20383FF4D
:102E300006C048E062E982E793E00E94CD0341E8E2
:102E400061E882E793E00E94CD0310928F03109215
:102E50008E036DE182E793E00E94F203482F4E7FDC
:102E60006DE982E793E00E94CD0340E06DE882E7E0
:102E700093E00E94CD0340E062EA82E793E00E9483
:102E8000CD034091A4035091A5036091A0037091DC
:102E9000A10382E793E00E94450443E861E882E7EA
:102EA00093E00E94CD0362E182E793E00E94F20387
:102EB00083FFF9CF48E062E982E793E00E94CD0307
:102EC00080E090E0892B09F4D9CD0E945401882339
:102ED00009F4D4CD0E940000D1CD8CE790E00E948F
:102EE000C90996CC80914F0411E01093B0028093F1
:102EF000D2021092B1021092D30290E080E00E94C0
:102F00002D0789E890E00E942D0781E00E94FC04D3
:102F10008093440461E180914F040E94EC0510927B
:102F20008302809382020E94D500809345040E9410
:102F3000D5000E94D500809346040E94D5001092CF
:102F40004704809348040E94D500209147043091A3
:102F50004804822B932B90934804809347040E944B
:102F6000D5000E94D5000E94D5001092490480939C
:102F70004A040E94D5002091490430914A04822BD2
:102F8000932B90934A04809349040E94D5000E9499
:102F9000D5000E94D5000E94D5000E94D500109255
:102FA0004B0480934C040E94D50020914B04309137
:102FB0004C04822B932B90934C0480934B040E94DF
:102FC000D50010924D0480934E040E94D5002091AC
:102FD0004D0430914E04822B932B90934E0480939A
:102FE0004D048091590481112BC08BE090E00E9428
:102FF000BA0780935A0488E090E00E94BA07809351
:103000005B0460915A046F778BE090E00E94600748
:1030100060915B046370645F88E090E00E946007E9
:1030200061E08DE490E00E94600788ED90E00E94EE
:10303000BA07682F87E490E00E9460071093590454
:1030400020914704309148042115310509F46BC0E3
:1030500040914D0450914E046091490470914A048E
:1030600090E080E0640F751F811D911D6115710551
:10307000F1E08F07910520F06FEF7FEF80E090E0A7
:10308000CB017727662750E040E00E944F1B2115B7
:1030900031054105510509F446C0C201B1010E9444
:1030A0004F1B2115310581E04807510520F02FEF16
:1030B0003FEF40E050E0B90184E590E00E94320724
:1030C00020914B0430914C04ABEDB7E00E94701A94
:1030D0007C5F8F4F9F4F2BE09695879577956795EF
:1030E0002A95D1F770933A0460933904E09145042E
:1030F000E150E23108F06AC0F0E0EF57F74E0C946F
:10310000711B961896189618A0189E18A018A21849
:10311000A618A818E618E618A4189A18E618E618CB
:10312000E61896189C1860E070E8C6CF85E080939A
:103130003B0416C08DE0FBCF8AE0F9CF84E0F7CFE7
:1031400082E0F5CF87E0F3CF89E0F1CF83E0EFCFE6
:1031500080914604811102C086E0E9CF10923B04C1
:1031600060914D0470914E0490E080E00E940F1930
:1031700020E030E040E05CE30E94701960933C0482
:1031800070933D0480933E0490933F046091490402
:1031900070914A0490E080E00E940F1920E030E036
:1031A00040E05CE30E947019609340047093410416
:1031B000809342049093430461E086E890E00E948B
:1031C00060078091390490913A04EECC8FEFAFCF35
:1031D000B0925B02A0925A0214CD0E2E000CFF0B8F
:1031E000EE5AFE4F8081890FF801808348CD1092FE
:1031F000A5031092A40368EA71E0C9010E94BC1DF6
:10320000A7CD8091A0039091A103009711F00C9499
:10321000641C08950E944C1908F481E00895E89414
:1032200009C097FB3EF490958095709561957F4F0E
:103230008F4F9F4F9923A9F0F92F96E9BB279395BC
:10324000F695879577956795B795F111F8CFFAF4CC
:10325000BB0F11F460FF1BC06F5F7F4F8F4F9F4FFD
:1032600016C0882311F096E911C0772321F09EE85B
:10327000872F762F05C0662371F096E8862F70E0C1
:1032800060E02AF09A95660F771F881FDAF7880F9B
:103290009695879597F90895990F0008550FAA0BF1
:1032A000E0E8FEEF16161706E807F907C0F0121659
:1032B0001306E407F50798F0621B730B840B950B5C
:1032C00039F40A2661F0232B242B252B21F40895B1
:1032D0000A2609F4A140A6958FEF811D811D08954E
:1032E0000E9483190C94F4190E94E61938F00E9488
:1032F000ED1920F0952311F00C94DD190C94E319CD
:1033000011240C94281A0E94051A70F3959FC1F39A
:10331000950F50E0551F629FF001729FBB27F00D83
:10332000B11D639FAA27F00DB11DAA1F649F6627D8
:10333000B00DA11D661F829F2227B00DA11D621F27
:10334000739FB00DA11D621F839FA00D611D221FE1
:10335000749F3327A00D611D231F849F600D211DC5
:10336000822F762F6A2F11249F5750409AF0F1F048
:1033700088234AF0EE0FFF1FBB1F661F771F881FB1
:1033800091505040A9F79E3F510580F00C94DD19F3
:103390000C94281A5F3FE4F3983ED4F38695779512
:1033A0006795B795F795E7959F5FC1F7FE2B880F57
:1033B000911D9695879597F9089597F99F6780E8ED
:1033C00070E060E008959FEF80EC089500240A9477
:1033D0001616170618060906089500240A941216F0
:1033E0001306140605060895092E0394000C11F423
:1033F000882352F0BB0F40F4BF2B11F460FF04C0D0
:103400006F5F7F4F8F4F9F4F089557FD9058440F28
:10341000551F59F05F3F71F04795880F97FB991F33
:1034200061F09F3F79F087950895121613061406F0
:10343000551FF2CF4695F1DF08C01616170618067D
:10344000991FF1CF86957105610508940895E89458
:10345000BB2766277727CB0197F908950E94701A3A
:10346000A59F900DB49F900DA49F800D911D1124D8
:1034700008952F923F924F925F926F927F928F9218
:103480009F92AF92BF92CF92DF92EF92FF920F93F3
:103490001F93CF93DF93CDB7DEB7CA1BDB0B0FB6FD
:1034A000F894DEBF0FBECDBF09942A8839884888BA
:1034B0005F846E847D848C849B84AA84B984C88450
:1034C000DF80EE80FD800C811B81AA81B981CE0F47
:1034D000D11D0FB6F894DEBF0FBECDBFED0108952C
:1034E000A29FB001B39FC001A39F700D811D112445
:1034F000911DB29F700D811D1124911D089550588A
:10350000BB27AA270E94971A0C94F4190E94E61967
:1035100038F00E94ED1920F039F49F3F19F426F499
:103520000C94E3190EF4E095E7FB0C94DD19E92FF8
:103530000E94051A58F3BA176207730784079507A4
:1035400020F079F4A6F50C94271A0EF4E0950B2ED2
:10355000BA2FA02D0B01B90190010C01CA01A001E5
:103560001124FF27591B99F0593F50F4503E68F140
:103570001A16F040A22F232F342F4427585FF3CF81
:10358000469537952795A795F0405395C9F77EF452
:103590001F16BA0B620B730B840BBAF09150A1F09B
:1035A000FF0FBB1F661F771F881FC2F70EC0BA0F21
:1035B000621F731F841F48F4879577956795B795A9
:1035C000F7959E3F08F0B0CF9395880F08F09927A4
:1035D000EE0F9795879508950E94F31A6894B1119C
:1035E0000C94281A08950E940D1A88F09F5798F09D
:1035F000B92F9927B751B0F0E1F0660F771F881FF8
:10360000991F1AF0BA95C9F714C0B13091F00E9411
:10361000271AB1E008950C94271A672F782F88276E
:10362000B85F39F0B93FCCF3869577956795B39538
:10363000D9F73EF490958095709561957F4F8F4FA7
:103640009F4F08950E944C1908F48FEF0895AA1B0C
:10365000BB1B51E107C0AA1FBB1FA617B70710F07D
:10366000A61BB70B881F991F5A95A9F780959095AF
:10367000BC01CD01089597FB072E16F4009407D0E6
:1036800077FD09D00E94271B07FC05D03EF49095DA
:1036900081959F4F0895709561957F4F0895A1E2A0
:1036A0001A2EAA1BBB1BFD010DC0AA1FBB1FEE1FBC
:1036B000FF1FA217B307E407F50720F0A21BB30B07
:1036C000E40BF50B661F771F881F991F1A9469F783
:1036D00060957095809590959B01AC01BD01CF01DF
:1036E0000895EE0FFF1F0590F491E02D0994E894E2
:1036F000DF93CF93FC01DB010E94701A7F936F93DD
:10370000E9019A01AC01BF93AF933F932F93DF017F
:103710000E94701A26F46C1B7D0B820B930B9E018A
:10372000EB01FC010E94BF1BAF91BF912F913F9114
:103730000E94BF1BBE01CF01F9012F913F91CF9194
:10374000DF91089597FD1094002E083098F00850EE
:10375000232F342F452F562F672F782F892F912D08
:10376000F4CF1594979587957795679557954795D5
:10377000379527950A95AAF71124002D08950E94E0
:10378000701A460F571FC81FD91F08F431960895A5
:103790000F931F93CF93DF938230910510F482E053
:1037A00090E0E0916004F091610430E020E0B0E04E
:1037B000A0E0309799F42115310509F44AC0281B7F
:1037C000390B24303105D8F58A819B81611571054B
:1037D00089F1FB0193838283FE0111C040815181F5
:1037E0000281138148175907E0F04817590799F4E7
:1037F000109761F012960C93129713961C933296C1
:10380000CF01DF91CF911F910F9108950093600434
:1038100010936104F4CF2115310551F0421753077D
:1038200038F0A901DB019A01BD01DF01F801C1CF28
:10383000EF01F9CF9093610480936004CDCFFE0136
:10384000E20FF31F8193919322503109398328832A
:10385000D7CF20915E0430915F04232B41F4209157
:1038600006013091070130935F0420935E0420919C
:103870000401309105012115310541F42DB73EB702
:103880004091080150910901241B350BE0915E0421
:10389000F0915F04E217F307A0F42E1B3F0B2817EB
:1038A000390778F0AC014E5F5F4F2417350748F0B9
:1038B0004E0F5F1F50935F0440935E04819391937A
:1038C0009FCFF0E0E0E09CCFCF93DF930097E9F04B
:1038D000FC01329713821282A0916004B0916104BE
:1038E000ED0130E020E01097A1F420813181820FBA
:1038F000931F20915E0430915F042817390709F067
:1039000061C0F0935F04E0935E04DF91CF9108956E
:10391000EA01CE17DF07E8F54A815B819E01411578
:103920005105B1F7E901FB83EA8349915991C40F2D
:10393000D51FEC17FD0761F4808191810296840FF9
:10394000951FE90199838883828193819B838A8370
:10395000F0E0E0E012968D919C9113970097B9F5F5
:103960002D913C911197CD010296820F931F2091CA
:103970005E0430915F042817390739F6309751F506
:103980001092610410926004B0935F04A0935E04EF
:10399000BCCFD383C28340815181840F951FC81748
:1039A000D90761F44E5F5F4F88819981480F591F95
:1039B000518340838A819B819383828321153105C2
:1039C00009F0B0CFF0936104E09360049ECFFD0155
:1039D000DC01C0CF13821282D7CFB0E0A0E0E3EFCA
:1039E000FCE10C943B1A8C01009751F4CB010E942E
:1039F000C81B8C01C801CDB7DEB7E0E10C94571AA3
:103A0000FC01E60FF71F9C0122503109E217F30772
:103A100008F49DC0D901CD91DC911197C617D70745
:103A200098F0C530D10530F3CE010497861797077B
:103A300008F3C61BD70B2297C193D1936D937C9348
:103A4000CF010E94641CD6CF5B01AC1ABD0A4C01A9
:103A50008C0E9D1EA0916004B0916104512C412CEC
:103A6000F12CE12C109731F580915E0490915F0468
:103A70008815990509F05CC04616570608F058C02D
:103A80008091040190910501009741F48DB79EB794
:103A90004091080150910901841B950BE817F90723
:103AA00008F055C0F0935F04E0935E04F901718360
:103AB0006083A0CF8D919C91119712966C90129774
:103AC00013967C901397A815B90559F56C0142E03F
:103AD000C40ED11CCA14DB0420F1AC014A195B09E5
:103AE000DA011296159780F06282738251834083C7
:103AF000D9016D937C93E114F10471F0D701139611
:103B0000FC93EE93129776CF22968C0F9D1FF901AE
:103B100091838083F301EFCFF0936104E09360041D
:103B200069CF4816590608F42C017D01D3019ACFBC
:103B3000CB010E94C81B7C01009749F0AE01B8017F
:103B40000E94AA1DC8010E94641C870153CF10E087
:103B500000E050CFFB01DC0102C001900D9241500A
:103B60005040D8F70895FB01DC018D910190801938
:103B70000110D9F3990B0895FB01DC0101900D921E
:103B80000020E1F7089510E0C7E9D0E004C0FE018D
:103B90000E94711B2196C839D107C9F7F894FFCF4D
:103BA000A203A2030000620480000000803FCDCC8D
:103BB000CC3D6F12833A95BFD6337D1D9026B3CE90
:103BC000010CCDCCCC3D0AD7233C17B7D13877CCEC
:103BD0002B329595E6241FB14F0A000020410000CA
:103BE000C84200401C4620BCBE4CCA1B0E5AAEC583
:103BF0009D743F065B4F666D7D077F6F777C395EF6
:103C00007971000000008A01EA001701D70148011C
:103C100026013A0100000000800445048907F503ED
:103C200037041C04F60300000000FE06D1068907D5
:103C3000F503CA06C200BB062F2F22225C5C620875
:103C4000660C6E0A720D7409002020002C0D0A000B
:103C50006E756C6C00652D005B5D005B0D0A007B72
:103C60007D007B0D0A003A20007472756500666164
:103C70006C7365002054494D454F5554007761746D
:103C80006368646F670064697374616E63655F7312
:103C90006F6E61720064697374616E63655F6C61FD
:043CA00073657200D6
:107800000C94343C0C94513C0C94513C0C94513CE1
:107810000C94513C0C94513C0C94513C0C94513CB4
:107820000C94513C0C94513C0C94513C0C94513CA4
:107830000C94513C0C94513C0C94513C0C94513C94
:107840000C94513C0C94513C0C94513C0C94513C84
:107850000C94513C0C94513C0C94513C0C94513C74
:107860000C94513C0C94513C11241FBECFEFD8E036
:10787000DEBFCDBF11E0A0E0B1E0ECE9FFE702C060
:1078800005900D92A230B107D9F712E0A2E0B1E065
:1078900001C01D92AD30B107E1F70E942D3D0C945F
:1078A000CC3F0C94003C982F959595959595959582
:1078B000905D8F708A307CF0282F295A8091C0000B
:1078C00085FFFCCF9093C6008091C00085FFFCCF60
:1078D0002093C6000895282F205DF0CF982F809127
:1078E000C00085FFFCCF9093C6000895EF92FF92F1
:1078F0000F931F93EE24FF2487018091C00087FD22
:1079000017C00894E11CF11C011D111D81E4E8164B
:1079100082E4F8068FE0080780E0180770F3E09132
:107920000401F091050109958091C00087FFE9CF1E
:107930008091C6001F910F91FF90EF9008950E94D3
:10794000763C982F8091C00085FFFCCF9093C600B5
:1079500091362CF490330CF09053892F089597555D
:10796000892F08951F930E949F3C182F0E949F3CCF
:107970001295107F810F1F9108951F93182F882350
:1079800021F00E94763C1150E1F71F9108951F935A
:10799000182F0E94763C803249F0809103018F5F5E
:1079A000809303018530C1F01F9108958091C0003C
:1079B00085FFFCCF84E18093C6008091C00085FFE5
:1079C000FCCF1093C6008091C00085FFFCCF80E102
:1079D0008093C6001F910895E0910401F091050184
:1079E00009951F9108950E94763C803241F0809164
:1079F00003018F5F80930301853081F008958091AA
:107A0000C00085FFFCCF84E18093C6008091C00058
:107A100085FFFCCF80E18093C6000895E0910401CA
:107A2000F09105010995089540E951E08823A1F0FE
:107A30002D9A28EE33E0FA013197F1F721503040CA
:107A4000D1F72D9828EE33E0FA013197F1F7215064
:107A50003040D1F7815061F708953F924F925F9285
:107A60006F927F928F929F92AF92BF92CF92DF924E
:107A7000EF92FF920F931F93CF93DF93000080E16B
:107A80008093C4001092C50088E18093C10086E015
:107A90008093C2005098589A259A81E00E94143D24
:107AA00024E1F22E9EE1E92E85E9D82E0FE0C02ECA
:107AB00010E1B12EAA24A394B1E49B2EA6E58A2E50
:107AC000F2E57F2EE0E26E2E79E4572E63E5462E36
:107AD00050E5352E0E94763C8033B1F18133B9F107
:107AE000803409F46FC0813409F476C0823409F41B
:107AF00085C0853409F488C0803531F1823521F1A3
:107B0000813511F1853509F485C0863509F48DC0BC
:107B1000843609F496C0843709F403C1853709F423
:107B200072C1863709F466C0809103018F5F80932C
:107B30000301853079F6E0910401F0910501099582
:107B40000E94763C803351F60E94F33CC3CF0E94E2
:107B5000763C803249F78091C00085FFFCCFF092DF
:107B6000C6008091C00085FFFCCF9092C600809136
:107B7000C00085FFFCCF8092C6008091C00085FFC9
:107B8000FCCF7092C6008091C00085FFFCCF609250
:107B9000C6008091C00085FFFCCF5092C600809146
:107BA000C00085FFFCCF4092C6008091C00085FFD9
:107BB000FCCF3092C6008091C00085FFFCCFB09210
:107BC000C60088CF0E94763C863808F4BDCF0E945C
:107BD000763C0E94F33C7ECF0E94763C803809F4CC
:107BE0009CC0813809F40BC1823809F43CC1883942
:107BF00009F48FC080E00E94C73C6CCF84E10E94F2
:107C0000BD3C0E94F33C66CF85E00E94BD3C0E94D3
:107C1000F33C60CF0E94763C809306010E94763C44
:107C2000809307010E94F33C55CF0E94763C80333D
:107C300009F41DC183E00E94BD3C80E00E94C73C66
:107C400049CF0E94763C809309020E94763C809343
:107C5000080280910C028E7F80930C020E94763C79
:107C6000853409F415C18091080290910902892B8D
:107C700089F000E010E00E94763CF801E85FFE4FDA
:107C800080830F5F1F4F80910802909109020817AF
:107C9000190788F30E94763C803209F045CF809125
:107CA0000C0280FF01C16091060170910701660F0F
:107CB000771F7093070160930601A0910802B091AD
:107CC00009021097C9F0E8E0F1E09B01AD014E0F09
:107CD0005F1FF999FECF32BD21BD819180BDFA9A17
:107CE000F99A2F5F3F4FE417F50799F76A0F7B1F4B
:107CF00070930701609306018091C00085FFFCCF5F
:107D0000F092C6008091C00085FFFCCFB092C60003
:107D1000E1CE83E00E94C73CDDCE82E00E94C73CFA
:107D2000D9CE0E94763C809309020E94763C8093D3
:107D300008028091060190910701880F991F909386
:107D40000701809306010E94763C853409F4A6C0A1
:107D500080910C028E7F80930C020E94763C8032D0
:107D600009F0B8CE8091C00085FFFCCFF092C6002C
:107D7000609108027091090261157105B9F140E046
:107D800050E080910C02A82FA170B82FB27011C0E2
:107D9000BB2309F45CC0E0910601F0910701319624
:107DA000F0930701E09306014F5F5F4F46175707B7
:107DB000E8F4AA2369F3F999FECF209106013091E6
:107DC000070132BD21BDF89A90B58091C00085FFB2
:107DD000FCCF9093C6002F5F3F4F30930701209355
:107DE00006014F5F5F4F4617570718F38091C00099
:107DF00085FDE5CE8091C00085FFF8CFE0CE81E023
:107E00000E94C73C67CE0E94763C803209F08CCE3F
:107E10008091C00085FFFCCFF092C6008091C00029
:107E200085FFFCCFE092C6008091C00085FFFCCFAB
:107E3000D092C6008091C00085FFFCCFC092C600E2
:107E40008091C00085FFFCCFB092C60043CEE09188
:107E50000601F091070194918091C00085FFFCCF4D
:107E60009093C6009CCF80E10E94C73C33CE0E9415
:107E7000763C0E94763C182F0E94763C112309F430
:107E800083C0113009F484C08FE00E94C73C22CE29
:107E900080910C02816080930C02E5CE80910C02EF
:107EA000816080930C0259CF809107018823880F4D
:107EB000880B8A2180930B02809106019091070123
:107EC000880F991F90930701809306018091080203
:107ED00080FF09C080910802909109020196909359
:107EE000090280930802F894F999FECF1127E091D6
:107EF0000601F0910701C8E0D1E08091080290915D
:107F00000902103091F40091570001700130D9F34B
:107F100003E000935700E89500915700017001308D
:107F2000D9F301E100935700E89509901990009169
:107F3000570001700130D9F301E000935700E89534
:107F40001395103498F011270091570001700130FB
:107F5000D9F305E000935700E895009157000170B0
:107F60000130D9F301E100935700E895329602976A
:107F700009F0C7CF103011F00296E5CF112480919F
:107F8000C00085FFB9CEBCCE8EE10E94C73CA2CD19
:0C7F900085E90E94C73C9ECDF894FFCF0D
:027F9C00800063
:040000030000780081
:00000001FF
